:020000040000FA
:100000000C94E0000C94A80D0C94810D0C94270E18
:100010000C94270E0C94270E0C9408010C949F0E40
:100020000C9408010C9408010C9408010C94E30F43
:100030000C9408010C9408010C9408010C9408011C
:100040000C94370D0C9408010C94F50D0C94CF0D05
:100050000C9408010C9408010C9408010C940801FC
:100060000C94C40E0C94080100407A10F35A00A0BE
:10007000724E18090010A5D4E80000E87648170071
:1000800000E40B54020000CA9A3B000000E1F505B1
:10009000000080969800000040420F000000A086FB
:1000A00001000000102700000000E803000000002D
:1000B0006400000000000A000000000001000000D1
:1000C00000002C76D888DC674F0823DFC1DFAE59EB
:1000D000E1B1B796E5E3E453C63AE651997696E87E
:1000E000E6C28426EB898C9B62ED407C6FFCEFBC02
:1000F0009C9F40F2BAA56FA5F490055A2AF75C932D
:100100006B6CF9676DC11BFCE0E40D47FEF520E662
:10011000B500D0ED902E0300943577050080841E45
:10012000080000204E0A000000C80C333333330FA0
:10013000986E12831141EF8D2114893BE65516CF3D
:10014000FEE6DB18D1844B381BF77C1D901DA4BB49
:10015000E424203284725E228100C9F124ECA1E5FE
:100160003D27000000080002010000030407000012
:1001700000000000000000000000240027002A000A
:1001800000000000230026002900000000002500D8
:1001900028002B00040404040404040402020202E4
:1001A000020203030303030301020408102040803A
:1001B0000102040810200102040810209F104C18AE
:1001C00011241FBECFEFD8E0DEBFCDBF13E0A0E00B
:1001D000B1E0ECEAF0E402C005900D92AA30B1075C
:1001E000D9F725E0AAE0B3E001C01D92AC3DB2070B
:1001F000E1F710E0CFEDD0E004C02197FE010E94AE
:10020000511ECE3DD107C9F70E940C120C94492013
:100210000C940000CF92DF92EF92FF92DC01A032AB
:1002200082E0B807D4F5A53BB10514F0A4EBB0E02B
:100230004091AC0528E830E0241B310947FD339597
:10024000220F331F220F331F6901330FEE08FF08FF
:100250004091AD0528E532E0241B310947FD339577
:10026000220F331F220F331F032E000C440B550B9C
:100270002C193D094E095F09B7FF02C0B0E0A0E0AC
:100280000E94CE1C24EB30E040E050E00E94A41C11
:10029000C20ED31EE41EF51ED601E091AB05EC3074
:1002A00080F52091AC0588E890E0821B910927FD3C
:1002B0009395880F991F880F991FA817B90784F085
:1002C0002091AD0588E592E0821B910927FD939569
:1002D000880F991F880F991FA817B9070CF4CD0133
:1002E0000297880F991F4FB7F8942E2F30E0F9012D
:1002F000EE0FFF1FE20FF31FE55DFA4F928381833C
:100300004FBFFF90EF90DF90CF90089582E48093ED
:100310007C0080917A00806480937A0080917A00DA
:1003200086FDFCCF80917800909179000895FC01C2
:10033000538D448D252F30E0842F90E0821B930B4A
:10034000541710F0CF96089501970895FC01918DF0
:10035000828D981761F0A28DAE0FBF2FB11D5D96F3
:100360008C91928D9F5F9F73928F90E008958FEF95
:100370009FEF0895FC01918D828D981731F0828D49
:10038000E80FF11D858D90E008958FEF9FEF0895A0
:10039000FC01918D228D892F90E0805C9F4F821B04
:1003A00091098F7399270895FC01A48DA80FB92F87
:1003B000B11DA35ABF4F2C91848D90E001968F738D
:1003C0009927848FA689B7892C93A089B1898C91AC
:1003D000837080648C93938D848D981306C00288FB
:1003E000F389E02D80818F7D80830895EF92FF92C5
:1003F0000F931F93CF93DF93EC0181E0888F9B8D48
:100400008C8D98131AC0E889F989808185FF15C001
:100410009FB7F894EE89FF896083E889F989808124
:100420008370806480839FBF81E090E0DF91CF91F3
:100430001F910F91FF90EF900895F62E0B8D10E015
:100440000F5F1F4F0F731127E02E8C8D8E110CC084
:100450000FB607FCFACFE889F989808185FFF5CFCF
:10046000CE010E94D401F1CFEB8DEC0FFD2FF11DD9
:10047000E35AFF4FF0829FB7F8940B8FEA89FB890C
:1004800080818062CFCFCF93DF93EC01888D88236A
:10049000B9F0AA89BB89E889F9898C9185FD03C0E7
:1004A000808186FD0DC00FB607FCF7CF8C9185FFCC
:1004B000F2CF808185FFEDCFCE010E94D401E9CF3C
:1004C000DF91CF91089582E894E00E94C80121E075
:1004D000892B09F420E0822F089580E090E0892B99
:1004E00029F00E94630281110C940000089583306A
:1004F00081F028F4813099F08230A9F00895873096
:10050000A9F08830C9F08430B1F4809180008F7DEB
:1005100003C0809180008F7780938000089584B518
:100520008F7784BD089584B58F7DFBCF8091B00017
:100530008F778093B00008958091B0008F7DF9CFC0
:10054000CF93DF93282F30E0F901EE59FE4F8491CD
:10055000F901E855FE4FD491F901EC56FE4FC491D4
:10056000CC23A1F081110E947702EC2FF0E0EE0F76
:10057000FF1FE058FE4FA591B491EC91ED2381E06F
:1005800090E009F480E0DF91CF91089580E090E061
:10059000FACF1F93CF93DF93282F30E0F901EE5964
:1005A000FE4F8491F901E855FE4FD491F901EC56C4
:1005B000FE4FC491CC23A9F0162F81110E9477021F
:1005C000EC2FF0E0EE0FFF1FE657FE4FA591B49120
:1005D0008FB7F894EC91111108C0D095DE23DC930D
:1005E0008FBFDF91CF911F910895DE2BF8CFCF936E
:1005F000DF9390E0FC01E855FE4F24918C569E4F0E
:10060000FC0184918823C9F090E0880F991FFC01B8
:10061000EA58FE4FA591B491FC01E657FE4FC591F3
:10062000D49161110DC09FB7F8948C9120958223CD
:100630008C938881282328839FBFDF91CF910895D1
:10064000623051F49FB7F8943C91822F80958323B8
:100650008C93E8812E2BEFCF8FB7F894EC912E2B53
:100660002C938FBFEACF3FB7F89480912E049091DE
:100670002F04A0913004B091310426B5A89B05C089
:100680002F3F19F00196A11DB11D3FBFBA2FA92F11
:10069000982F8827BC01CD01620F711D811D911D0E
:1006A00042E0660F771F881F991F4A95D1F708957A
:1006B0008F929F92AF92BF92CF92DF92EF92FF9272
:1006C0004B015C010E9433036B017C010E943303E8
:1006D0006C197D098E099F09683E7340810591055B
:1006E000A8F321E0821A9108A108B10888EEC80E8B
:1006F00083E0D81EE11CF11C81149104A104B10413
:1007000029F7FF90EF90DF90CF90BF90AF909F9030
:100710008F9008952FB7F89460912A0470912B045C
:1007200080912C0490912D042FBF08950895089571
:100730000895AF92BF92CF92DF92EF92FF920F9304
:100740001F93CF93DF936C017B018B01040F151F67
:10075000EB015E01AE18BF08C017D10759F06991CF
:10076000D601ED91FC910190F081E02DC601099533
:10077000892B79F7C501DF91CF911F910F91FF90E0
:10078000EF90DF90CF90BF90AF9008952091B80385
:100790003091B9032817390771F49091B60380910D
:1007A000B703981741F0E091B603F0E0EA58FC4F28
:1007B000808190E008958FEF9FEF08950895EF9264
:1007C000FF920F931F93CF93DF93DC015C96ED9024
:1007D000FC905D97E114F10479F481E090E01396C8
:1007E0009C938E93129790E080E0DF91CF911F91C0
:1007F0000F91FF90EF9008955196ED91FC915297D3
:1008000050968C915097982F90950FB75E962C919B
:100810005E97122F127021FD6095F89420811123AC
:1008200019F1282B2083E7012197F1F728E0462FC3
:1008300050E0308160FF1AC0382B3083E7012197E8
:10084000F1F7BA0175956795215089F7112381F069
:100850008081892380830FBF5C968D919C91019745
:10086000F1F781E090E0C1CF2923DCCF3923E5CF38
:100870009081892BEFCF2091B8033091B9032817CD
:10088000390761F48091B7032091B60390E0805C52
:100890009F4F821B91098F739927089590E080E004
:1008A00008952091B8033091B90328173907B9F496
:1008B0009091B6038091B703981789F0E091B60341
:1008C000F0E0EA58FC4F80812091B60330E02F5FC2
:1008D0003F4F2F7333272093B60390E008958FEF97
:1008E0009FEF0895089520913303260F3327331F78
:1008F00021323105ECF420915804FC0190E080E0B5
:10090000243069F082E00895A09133032191AC0175
:100910004D5E5C4FA40FB52FB11D2C930196861729
:1009200098F380913303680F6093330380E0089558
:1009300081E008951092580481E08093570410924A
:10094000320461E082E10E94C90261E083E10E9419
:10095000C902E9EBF0E080818E7F808380818D7F0A
:10096000808388E48093B80085E48093BC00089578
:10097000CF93DF9391E0909312038823B9F0C09155
:10098000B800D091BA008091BC008A7B8093BC00F3
:1009900060E082E10E94C90260E083E10E94C90236
:1009A0000E949A04D093BA00C093B800DF91CF910F
:1009B00008958F929F92AF92BF92CF92DF92EF9263
:1009C000FF920F931F93CF93DF93D0918104D13285
:1009D00008F0D7C0182FC09180040E9433036B0128
:1009E0007C018091580481116BC082E0809358048F
:1009F000109357048FEF8093560410925504D093B0
:100A00005404A0E6B4E0E4E3F4E080E0D81391C03D
:100A10001092330480913304CC0FC82BC09333045D
:100A200080913204813009F088C0109232040E9413
:100A300033036B017C01809133048093BB00809170
:100A40005A0490915B04A0915C04B0915D04892BE1
:100A50008A2B8B2BA1F00E94330300915A04109132
:100A60005B0420915C0430915D046C197D098E0952
:100A70009F09061717072807390708F442C0809115
:100A8000BC0083FDD8CF85EC8093BC000E9433036B
:100A90006B017C0180915804823009F450C0809130
:100AA00056048F3F09F46FC080915604803209F4D8
:100AB0006CC080915604803309F469C084E026C07C
:100AC00080915A0490915B04A0915C04B0915D0404
:100AD000892B8A2B8B2B09F484CF0E9433038090BF
:100AE0005A0490905B04A0905C04B0905D046C1973
:100AF0007D098E099F0986169706A806B90608F093
:100B000070CF809159040E94B80485E010925F0470
:100B10001092810410925E04DF91CF911F910F918A
:100B2000FF90EF90DF90CF90BF90AF909F908F900D
:100B300008959D9191938F5F69CF85EEA5CF8091A8
:100B40005A0490915B04A0915C04B0915D04892BE0
:100B50008A2B8B2B09F49ECF0E94330300915A04F9
:100B600010915B0420915C0430915D046C197D0947
:100B70008E099F09061717072807390708F08ACF3B
:100B8000C0CF81E0C3CF80E0C1CF82E0BFCF83E0A0
:100B9000BDCF0F931F93CF93DF938A01E901209775
:100BA00011F4CFE1D5E091E090935E04809380044E
:100BB00010925F0410928104E881F9810190F08124
:100BC000E02DCE010995E881F9810190F081E02DB9
:100BD000D8016C91CE01099581E00E94D90491E081
:100BE000811190E0892FDF91CF911F910F9108958E
:100BF000E091BF038091BE03E81730F4F0E0EA5AB9
:100C0000FC4F808190E008958FEF9FEF08959091C1
:100C1000BF038091BE032FEF3FEF981748F4E92FF1
:100C2000F0E0EA5AFC4F208130E09F5F9093BF03D1
:100C3000C90108958091BE039091BF03891B990B50
:100C40000895CF92DF92EF92FF920F931F93CF936D
:100C5000DF937C01CB018A0120915E04222389F07D
:100C6000EB016B01C40ED51ECC15DD0569F0699151
:100C7000D701ED91FC910190F081E02DC70109951C
:100C8000F3CF642F0E947304C801DF91CF911F91AD
:100C90000F91FF90EF90DF90CF900895CF93DF9367
:100CA0001F92CDB7DEB7698320915E042223F9F04D
:100CB00020918104203258F021E030E0FC013383A0
:100CC000228390E080E00F90DF91CF910895809192
:100CD0005F04E82FF0E0E05AFB4F998190838F5F2B
:100CE00080935F048093810481E090E0ECCF61E029
:100CF000CE0101960E947304F7CFFC01248131E0FC
:100D000030935E042093800410925F04109281045B
:100D10008385682B8FE195E00E944E0681E00C945C
:100D2000D90490E080E00895CF93DF931F92CDB770
:100D3000DEB783E00E94A00221E0892B09F420E0C5
:100D40002983698181E0682787E00E94C90289813F
:100D5000882359F088E08093B90560E08EEA95E039
:100D60000F90DF91CF910C947D061092B905F5CFCD
:100D70000F931F93E091A205F091A30580819091BC
:100D80009C05892B8083E0919E05F0919F058081D1
:100D900090919C05892B80838BE290E00197F1F77D
:100DA000E0919E05F0919F05908180919C05809532
:100DB000892380838091AA05882351F0E091A205C0
:100DC000F091A305908180919C0580958923808373
:100DD000E091A005F091A105808190919D05892366
:100DE00029F090E080E01F910F9108950E94330355
:100DF000AB01BC018091A4059091A505B0E0A0E0F5
:100E00008855994EAF4FBF4F840F951FA61FB71F30
:100E10008093A6059093A705A093A805B093A90574
:100E2000E091A005F091A105808190919D05892315
:100E300081F40E9433030091A6051091A70520912B
:100E4000A8053091A905061717072807390740F7A5
:100E5000C8CF0E9433032091A4053091A505620FED
:100E6000731F811D911D6093A6057093A705809344
:100E7000A8059093A905E091A005F091A1058081B6
:100E800090919D05892381F00E9433030091A6056E
:100E90001091A7052091A8053091A90506171707FD
:100EA0002807390740F79DCF0E9433032091A405FE
:100EB0003091A505A901455051092091A605309111
:100EC000A705FA01E21BF30BCF01860F971F8BCF0B
:100ED0002F923F924F925F926F927F928F929F924A
:100EE000AF92BF92CF92DF92EF92FF920F931F9338
:100EF000CF93DF93CDB7DEB72F970FB6F894DEBF51
:100F00000FBECDBF8C836F834983398728875801F3
:100F100047010E948A036B017C018114910421F432
:100F20008FE1882E85E0982E2C81220F2E83398127
:100F3000832F90E0432F41954D83132F312C212C8B
:100F40001F869B838A8301E0C501B0E0A0E08A8709
:100F50009B87AC87BD87AA81BB812A163B060CF014
:100F600011C100935E04BC81B093800410925F04B1
:100F700010928104D401ED91FC910190F081E02D5B
:100F80006F81C401099581E00E94D9040E94330356
:100F90002B013C018091580481116DC01E871132D4
:100FA00010F0B0E2BE8700935804009357042FEF6F
:100FB00020935604109255048E85815080935404DA
:100FC00000933304809133043E81832B8093330458
:100FD00080913204813009F098C0109232040E944E
:100FE00033032B013C01809133048093BB0080913B
:100FF0005A0490915B04A0915C04B0915D04892B2C
:101000008A2B8B2BA1F00E94330320915A0430913C
:101010005B0440915C0450915D0464197509860974
:101020009709261737074807590708F445C08091E4
:10103000BC0083FDD8CF45EC4093BC000E94330335
:101040002B013C0180915804813009F462C08091E9
:1010500055049E85891718F4A0915504AE87A4E322
:10106000B4E0E6E5F3E080E02E85821751F19D9132
:1010700091938F5FF9CF80915A0490915B04A09176
:101080005C04B0915D04892B8A2B8B2B09F482CFF1
:101090000E94330320915A0430915B0440915C0418
:1010A00050915D0464197509860997092617370759
:1010B0004807590708F06ECF809159040E94B80480
:1010C0001E861092BF033E853093BE03D401ED917E
:1010D000FC910084F185E02DC4010995892B09F468
:1010E0004AC0A114B104B9F5D401ED91FC91028478
:1010F000F385E02DC4010995E885F985BF85EB0FDF
:10110000F11D8083BF5FBF87E1CF55EE5093BC00D8
:1011100095CF80915A0490915B04A0915C04B091AA
:101120005D04892B8A2B8B2B09F48CCF0E9433030F
:1011300020915A0430915B0440915C0450915D040D
:10114000641975098609970926173707480759074B
:1011500008F078CFB1CF0E948A036C197D098E09FF
:101160009F092A853B854C855D8562177307840737
:10117000950708F4B9CF4A815B81240E351E5D8145
:10118000150FE9CEA114B104B1F00E948A03AB019E
:10119000BC014C195D096E097F09C501B0E0A0E0F2
:1011A000481759076A077B0730F08F85998189179F
:1011B00010F4AFEFAF878F852F960FB6F894DEBF90
:1011C0000FBECDBFDF91CF911F910F91FF90EF9098
:1011D000DF90CF90BF90AF909F908F907F906F9057
:1011E0005F904F903F902F900895EF92FF920F9352
:1011F0001F93EFE6F5E0E180F28008EE13E022E7CE
:1012000035E041E06AE380810E94680761E087E0A1
:101210001F910F91FF90EF900C94C9027F928F92D3
:101220009F92AF92BF92CF92DF92EF92FF920F9375
:101230001F93CF93DF9300D0CDB7DEB7A82E962EA5
:10124000742E822EB02E08EE13E09E012E5F3F4FCB
:1012500041E00E9468078823C1F1872D8819990B06
:10126000AC014F5F5F4F81E090E002C0880F991F93
:101270008A94E2F70197042E01C0880F0A94EAF7D6
:101280002B2D01C0220F4A95EAF7B82EB0949A810F
:10129000B92282238B298A8389839701AE014F5F0C
:1012A0005F4F692D8A2D0E94C9050F900F90DF9125
:1012B000CF911F910F91FF90EF90DF90CF90BF9053
:1012C000AF909F908F907F90089580E0EECF8F92A7
:1012D0009F92AF92BF92CF92DF92EF92FF920F93C5
:1012E0001F93CF93DF9300D0CDB7DEB7B82EA62ED5
:1012F000842E922E6801780108EE13E09E012E5F85
:101300003F4F41E00E94680721E030E001C0220F1A
:101310008A94EAF78A819920D1F0822B8A83898383
:101320009601AE014F5F5F4F6A2D8B2D0E94C9055C
:101330000F900F90DF91CF911F910F91FF90EF9041
:10134000DF90CF90BF90AF909F908F9008952095A1
:101350008223E4CF0F931F93CF938C01C62F0E945B
:101360007D066C2F6460C8010E947D066C2F6B7F28
:10137000C8010E947D0683EC90E00197F1F7CF91C0
:101380001F910F9108950F931F93CF93DF938C01BB
:10139000D62FC42F607F642B0E94AA0980E1D89FBA
:1013A000B00111246C2BC801DF91CF911F910F91D7
:1013B0000C94AA09CF93DF93CDB7DEB728970FB669
:1013C000F894DEBF0FBECDBF98E0EEE0F1E0DE01A5
:1013D000119601900D929A95E1F79091B6059817A4
:1013E00008F48FEF90E0880F991F21E030E02C0F78
:1013F0003D1F820F931FFC016081606840E08EEA10
:1014000095E028960FB6F894DEBF0FBECDBFDF91F2
:10141000CF910C94C30940E061E08EEA95E00E9410
:10142000C3098BE39FE10197F1F7089541E00E9422
:10143000C30981E090E00895FB0101900020E9F7E5
:101440003197AF01461B570BDC01ED91FC910280F7
:10145000F381E02D0994CF93DF93FC014481558102
:101460006081718180E595E00E949903EC0168E557
:1014700071E080E595E00E941C0A8C0F9D1FDF91B2
:10148000CF9108958F929F92AF92BF92EF92FF9269
:101490000F931F93CF93DF93CDB7DEB7A1970FB60E
:1014A000F894DEBF0FBECDBF7C01FA01CB0119A2BB
:1014B000223008F42AE08E010F5D1F4F822E912CFE
:1014C000B12CA12CBF01A50194010E940D1DF901B1
:1014D000CA016A300CF5605DD8016E938D01232B33
:1014E000242B252B79F790E080E0109721F0BD01A7
:1014F000C7010E941C0AA1960FB6F894DEBF0FBE6A
:10150000CDBFDF91CF911F910F91FF90EF90BF90D2
:10151000AF909F908F900895695CDECF0C941C0A69
:101520004F925F926F927F928F929F92AF92BF92F3
:10153000CF92DF92EF92FF920F931F93CF93DF939F
:101540006C015B017A014090E4035090E503052CA7
:10155000000C660877082AE0B301A20177FE0DC0EF
:101560006DE282E894E00E94F60144275527BA0113
:1015700044195509660977092AE082E894E00E9437
:10158000420A6BE571E082E894E00E948E0AD6017F
:1015900014964D915C9115976D917C9182E894E041
:1015A0000E9499036AE671E082E894E00E948E0A44
:1015B00080910F03909110038A159B0584F4C60156
:1015C0000E942B0AF70101900020E9F731978F0163
:1015D0000E191F0909F082C081E080930E038091EB
:1015E0000E038823C9F06CE671E082E894E00E9463
:1015F0001C0A68E571E082E894E00E941C0A809170
:10160000E4039091E50301969093E5038093E4034E
:101610001092100310920F0380910E03811114C0D9
:101620006FE671E082E894E00E941C0A68E571E0D0
:1016300082E894E00E941C0A1092E5031092E403F1
:101640001092100310920F0310920E03DF91CF91AE
:101650001F910F91FF90EF90DF90CF90BF90AF90D0
:101660009F908F907F906F905F904F900895C1E012
:10167000D0E00E948A0360935805709359058093C7
:101680005A0590935B0580E595E00E94510497FF11
:1016900056C00E948A0340905805509059056090AA
:1016A0005A0570905B056419750986099709409081
:1016B0005405509055056090560570905705641577
:1016C000750586059705F8F280910F039091100338
:1016D00001969093100380930F036ACFD0E0C0E08F
:1016E000C8CF209731F24F017C2E6D2E2197D40167
:1016F0002E914D01022E000C330B2817390719F0DB
:10170000209791F7B6CF209709F4B1CFB701AF0179
:101710004C1B5D0B30E020E0DB015D90BD01DA0188
:101720004D90AD01451005C02F5F3F4F2C173D0771
:1017300098F3C217D307C1F6C72DD62D9ACFF7015C
:10174000EC0FFD1F2081022E000C330B28173907E8
:1017500041F621960C171D0709F08BCF3DCF0F9353
:101760001F93CF93DF93EC0188819981009759F003
:101770002A813B812617370730F081E0DF91CF9136
:101780001F910F9108958B016F5F7F4F0E947C1F07
:10179000009759F0998388831B830A832C813D81AC
:1017A000232B59F7FC011082E8CF80E0E7CFEF92BE
:1017B000FF920F931F93CF93DF936115710541F44F
:1017C00080E0DF91CF911F910F91FF90EF900895EE
:1017D00041155105B1F07B01EC010C811D81040F15
:1017E000151FB8010E94AF0B882351F3288139815E
:1017F0008C819D81B701820F931F0E9442201D831F
:101800000C8381E0DECFCF93DF93EC018881998157
:10181000009711F00E94F31E198218821D821C820B
:101820001B821A82DF91CF910895EF92FF920F935E
:101830001F93CF93DF93CDB7DEB764970FB6F894BD
:10184000DEBF0FBECDBF7C01CB01BA018E010F5FA1
:101850001F4F22E044E00E947B18FC010190002011
:10186000E9F73197AF01481B590BBC01C7010E9432
:10187000D70B811103C0C7010E94030CC7016496F6
:101880000FB6F894DEBF0FBECDBFDF91CF911F9191
:101890000F91FF90EF900895EF92FF920F931F9397
:1018A000CF93DF93CDB7DEB728970FB6F894DEBF9E
:1018B0000FBECDBF7C01CB014AE08E010F5F1F4FF1
:1018C000B8010E943D19F80101900020E9F7319715
:1018D000AF01401B510BB801C7010E94D70B81110A
:1018E00003C0C7010E94030CC70128960FB6F894E5
:1018F000DEBF0FBECDBFDF91CF911F910F91FF9043
:10190000EF900895CF93DF93EC01FB01019000204D
:10191000E9F73197AF01461B570B0E94D70B811196
:1019200003C0CE010E94030CCE01DF91CF91089538
:10193000CF93DF93EC01FB0144815581608171817C
:101940000E94D70B811103C0CE010E94030CCE016F
:10195000DF91CF910895EF92FF920F931F93CF9352
:10196000DF93EC017B018A01BA010E94AF0B811168
:101970000BC0CE010E94030CCE01DF91CF911F91CD
:101980000F91FF90EF9008951D830C83B70188811C
:1019900099810E944220F0CFFB01DC0111961C923C
:1019A0001E9213961C921E92129715961C921E92CE
:1019B00014978617970749F0608171816115710549
:1019C00021F0448155810C94AB0C0895FC011182E7
:1019D00010821382128215821482FB010190002072
:1019E000E9F73197AF01461B570B0C94AB0CFC0188
:1019F00080819181009711F00C94F31E089585ED7C
:101A00008093BC0080915A0490915B04A0915C0487
:101A1000B0915D040796A11DB11D23E0B695A79571
:101A2000979587952A95D1F72091BC0024FD03C096
:101A300010925804089540915A0450915B046091AB
:101A40005C0470915D04452B462B472B69F300978E
:101A5000A105B10541F02AE22A95F1F700C00197EE
:101A6000A109B109E1CF809159040C94B8041F92E7
:101A70000F920FB60F9211242F933F938F939F9342
:101A8000AF93BF9380912A0490912B04A0912C04D2
:101A9000B0912D043091290423E0230F2D3758F500
:101AA0000196A11DB11D2093290480932A049093CF
:101AB0002B04A0932C04B0932D0480912E049091BC
:101AC0002F04A0913004B09131040196A11DB11DE5
:101AD00080932E0490932F04A0933004B09331048C
:101AE000BF91AF919F918F913F912F910F900FBE1A
:101AF0000F901F90189526E8230F0296A11DB11D87
:101B0000D2CF1F920F920FB60F9211242F933F93B3
:101B10004F935F936F937F938F939F93AF93BF93F5
:101B2000EF93FF93E0910201F09103010995FF917A
:101B3000EF91BF91AF919F918F917F916F915F9145
:101B40004F913F912F910F900FBE0F901F901895BE
:101B50001F920F920FB60F9211242F933F934F9322
:101B60005F936F937F938F939F93AF93BF93EF9305
:101B7000FF93E0910001F09101010995FF91EF9130
:101B8000BF91AF919F918F917F916F915F914F9195
:101B90003F912F910F900FBE0F901F9018951F929D
:101BA0000F920FB60F9211242F933F934F935F9391
:101BB0006F937F938F939F93AF93BF93EF93FF9315
:101BC00082E894E00E94D401FF91EF91BF91AF9120
:101BD0009F918F917F916F915F914F913F912F9145
:101BE0000F900FBE0F901F9018951F920F920FB677
:101BF0000F9211242F938F939F93EF93FF93E09174
:101C00009204F09193048081E0919804F0919904FA
:101C100082FD1BC0908180919B048F5F8F73209108
:101C20009C04821741F0E0919B04F0E0EE57FB4FDB
:101C3000958F80939B04FF91EF919F918F912F91AE
:101C40000F900FBE0F901F9018958081F4CF1F92B8
:101C50000F920FB60F9211242F933F934F935F93E0
:101C60006F937F938F939F93AF93BF93EF93FF9364
:101C7000E091B803F091B903309749F0A685B78594
:101C80008585968D91FF14C09C918923A1F4FF91C5
:101C9000EF91BF91AF919F918F917F916F915F91E4
:101CA0004F913F912F910F900FBE0F901F9018955D
:101CB0009C91892361F7A389B4899C91858980953A
:101CC00089238C93868997890197F1F7608D718DAF
:101CD000A685B785558538E020E0CB010197F1F75F
:101CE000822F90E095958795282F4C91452309F0F8
:101CF0002068315091F7868D81FD20958091B70342
:101D000090E001968F7399273091B603381799F0B8
:101D1000A091B703B0E0AA58BC4F2C938093B703AF
:101D2000828D938D0197F1F7A389B4898C91958960
:101D3000892B8C93ACCF868D8160868FF1CF1F92DB
:101D40000F920FB60F9211242F933F934F935F93EF
:101D50006F937F938F939F93AF93BF93EF93FF9373
:101D6000F0E0E0E00995FF91EF91BF91AF919F9175
:101D70008F917F916F915F914F913F912F910F9034
:101D80000FBE0F901F9018951F920F920FB60F92D3
:101D900011242F933F934F935F936F937F938F9370
:101DA0009F93AF93BF93EF93FF938091B900887F88
:101DB000803609F44AC0F0F5883209F4A7C018F556
:101DC000803109F49BC0B8F4882309F4F9C0883045
:101DD00009F494C0FF91EF91BF91AF919F918F91C2
:101DE0007F916F915F914F913F912F910F900FBE17
:101DF0000F901F901895883109F488C0803251F7F0
:101E00008093560414C0803409F49DC040F480339C
:101E1000B9F38833F9F68093560485ECB0C0803569
:101E200009F485C0883509F496C0883499F60E9473
:101E3000FF0CD0CF883909F48CC038F5883729F0E9
:101E400050F4883611F0803729F683E080935804E7
:101E50001092550357C0883809F47BC0803919F0B7
:101E6000803809F0B7CF80915503803208F071C0F7
:101E7000E091550381E08E0F809355038091BB0064
:101E8000F0E0EB5CFC4F80833DC0803B39F0E0F438
:101E9000803A09F479C0883A09F09CCF84E08093B5
:101EA00058041092340310923303E091BA03F09176
:101EB000BB0309958091330381110FC081E08093AA
:101EC00033031092130309C0803C09F4A6CF883C69
:101ED00009F4A3CF883B09F07DCFE091340381E082
:101EE0008E0F80933403F0E0ED5EFC4F8081809391
:101EF000BB00909134038091330329C08091330457
:101F00008093BB0085EC8093BC0064CF9091550416
:101F100080915404981758F5E091550481E08E0F94
:101F200080935504F0E0EC5CFB4F8081E9CFE091B9
:101F3000550481E08E0F809355048091BB00F0E042
:101F4000EC5CFB4F8083909155048091540498176A
:101F5000C8F285E8D8CFE091550481E08E0F8093D8
:101F600055048091BB00F0E0EC5CFB4F80838091D6
:101F7000570481115CCF81E08093320484EA80931E
:101F8000BC001092580426CF85EC8093BC001092C0
:101F9000580480915503803230F4E0915503F0E00D
:101FA000EB5CFC4F10826091550370E0E091BC0344
:101FB000F091BD0385E393E00995109255030ACF94
:101FC0001092560434CF1F920F920FB60F92112425
:101FD0002F933F934F935F936F937F938F939F9331
:101FE000AF93BF93CF93DF93EF93FF938091110350
:101FF000C0914F05D0E087FF24C010928500109259
:102000008400809111038F5F8093110380911103ED
:10201000082E000C990B8C179D0724F48091110356
:102020008C30C4F1809184009091850004968034B6
:102030009C4908F47AC080918400909185000496B0
:1020400076C080911103082E000C990B8C179D0708
:10205000C4F6E09111038E2FEE0F990BFC01EE0FE9
:10206000FF1FE80FF91FE55DFA4F808186FFC9CF9A
:10207000E09111038E2FEE0F990BFC01EE0FFF1F65
:10208000E80FF91FE55DFA4F808160E08F730E94D1
:10209000C902B7CF2091840030918500E0911103EF
:1020A0008E2FEE0F990BFC01EE0FFF1FE80FF91FAB
:1020B000E55DFA4F81819281820F931F9093890091
:1020C00080938800E09111038E2FEE0F990BFC0195
:1020D000EE0FFF1FE80FF91FE55DFA4F808186FFC5
:1020E00011C0E09111038E2FEE0F990BFC01EE0F42
:1020F000FF1FE80FF91FE55DFA4F808161E08F73E4
:102100000E94C902FF91EF91DF91CF91BF91AF91F2
:102110009F918F917F916F915F914F913F912F91FF
:102120000F900FBE0F901F90189580E49CE990933C
:102130008900809388008FEF80931103E3CF109282
:1021400085041092840488EE93E0A0E0B0E08093D0
:10215000860490938704A0938804B09389042AE1AD
:1021600031E0309383042093820425EC30E03093F7
:102170008F0420938E0424EC30E03093910420935C
:10218000900420EC30E0309393042093920421ECEF
:1021900030E0309395042093940422EC30E03093A7
:1021A00097042093960426EC30E030939904209312
:1021B000980410929B0410929C0410929D0410921B
:1021C0009E0410922205109221058093230590937E
:1021D0002405A0932505B09326058CE291E0909309
:1021E000200580931F0564E771E082ED95E00E9471
:1021F000E60C67E871E08CEC95E00E94E60C6AE979
:1022000071E086EC95E00E94E60C6BEA71E080ECF0
:1022100095E00E94E60C6EEB71E08AEB95E00E947F
:10222000E60C1092B1051092B00580E591E0909314
:10223000AF058093AE0587E28093B20580E180937D
:10224000B70582E08093B8051092B90580914F05DB
:102250008C3008F0DDC091E0980F90934F0580938B
:10226000AB0590E0FC01EE0FFF1FE80FF91FE55DE5
:10227000FA4F88EB9BE092838183E2EBF1E02491BB
:1022800020939C05E3EBF1E0E491E0939D058EE95A
:1022900091E0FC013491E32FF0E0EE0FFF1FE657D1
:1022A000FE4F4591549150939F0540939E05EFE951
:1022B000F1E0E491F0E0EE0FFF1FE058FE4F459192
:1022C00054915093A1054093A005FC018491E82FFF
:1022D000F0E0EE0FFF1FEA58FE4FA591B491B093C6
:1022E000A305A093A2051092AA0585E093E490931C
:1022F000A5058093A405EC912E2B2C93E0919E05CF
:10230000F0919F05908180919C0580958923808321
:1023100088E680936F05109271051092700588EF22
:102320009AE2A0E0B0E08093800590938105A093AD
:102330008205B0938305109253051092520588EEE2
:1023400093E0A0E0B0E08093540590935505A093EE
:102350005605B09357058EE391E090935105809315
:10236000500510926705109266051092690510924B
:10237000680510926B0510926A0510926D05109217
:102380006C0560916E056E7F6D7F60936E0566953E
:10239000617081E0682786E00E94C90261E086E002
:1023A0000E94F702EEEAF1E0E491E0936005EAE9C9
:1023B000F1E0E491F0E0EE0FFF1FE657FE4F85914C
:1023C0009491909362058093610560E084E00E949F
:1023D000F70280916E0581FD04C061E084E00E94F7
:1023E000C90284E080935C05ECEAF1E0E491E093BB
:1023F0005D05E8E9F1E0E491F0E0EE0FFF1FE05841
:10240000FE4F8591949190935F0580935E050895AA
:102410008FEF8093AB0531CFCF93DF93CDB7DEB78E
:10242000A6970FB6F894DEBF0FBECDBF789484B5E3
:10243000826084BD84B5816084BD85B5826085BDC0
:1024400085B5816085BD80916E00816080936E004E
:102450001092810080918100826080938100809140
:1024600081008160809381008091800081608093F1
:1024700080008091B10084608093B1008091B000B1
:1024800081608093B00080917A00846080937A00AC
:1024900080917A00826080937A0080917A008160D6
:1024A00080937A0080917A00806880937A001092FD
:1024B000C1001092BF031092BE0310925F041092ED
:1024C00081040E949A0486E993E09093BB03809371
:1024D000BA0387E993E09093BD038093BC03109205
:1024E000B3058091B805823018F098E09093B30559
:1024F0008093B60562E370E080E090E00E945803AC
:102500006091B9058EEA95E00E947D0668EE73E061
:1025100080E090E00E94580360E38EEA95E00E941C
:10252000AA090BE416E4C8010197F1F760E38EEA0B
:1025300095E00E94AA09C8010197F1F760E38EEACD
:1025400095E00E94AA0983E592E00197F1F760E225
:102550008EEA95E00E94AA096091B305606240E0AE
:102560008EEA95E00E94C30984E08093B40540E0C0
:102570006CE08EEA95E00E94C3090E940B0A82E09B
:102580008093B50540E066E08EEA95E00E94C309BD
:1025900040E062E08EEA95E00E94C3098BE39FE190
:1025A0000197F1F788E08093B90560E08EEA95E045
:1025B0000E947D0680E00E94DA0961EC71E08EEAFB
:1025C00095E00E948E0A68EE73E080E090E00E9441
:1025D00058030E940B0A10926B0510926A05109224
:1025E00069051092680510926705109266058FE1E3
:1025F00090E090936D0580936C0590915C05963109
:1026000008F047C021E030E030936705209366056D
:102610002DE130E030936905209368052DE030E02E
:1026200030936B0520936A052091680084E0983010
:1026300048F031E09E3008F430E081E001C0880FBE
:102640003A95EAF7822B809368002DE630E09830C7
:1026500050F02BE630E09E3030F02CE630E0963142
:1026600010F030E020E03093640520936305292FBB
:1026700030E0983008F0F4C181E001C0880F9A95ED
:10268000EAF78093650580916C0590916D0501973F
:10269000F1F780916A0590916B05892B49F1E091E2
:1026A000B803F091B90325E0E035F20709F130975E
:1026B00039F0A389B4899C918589809589238C936D
:1026C00080916E058E7F80936E051092B7031092F5
:1026D000B60380E595E09093B9038093B803E09149
:1026E0006305F0916405808190916505892B808355
:1026F00061ED71E0CE0101961C010E94E60C4CE6F2
:1027000051E065E070E0C1010E94900AC1010E94A1
:10271000F70C64ED71E0C1010E94E60C4CE651E05B
:1027200065E070E0C1010E94900AC1010E94F70CAF
:1027300060EE71E0CE0142960E94E60C62ED75E01B
:10274000CE0142960E94980C66EE72E00E94820CC6
:102750006CEC75E00E94980C68EE72E00E94820CAE
:10276000BC01C1010E94CC0C4CE651E064E170E078
:10277000C1010E94900AC1010E94F70CCE0142964D
:102780000E94F70C60E085E00E94F70261E08AE0B9
:102790000E94F70260E08BE00E94F70261E087E0B0
:1027A0000E94F70262E083E00E94F70260E082E0AC
:1027B0000E94F70260E087E00E94C90284E996E087
:1027C000909303018093020180916900837F84606C
:1027D00080936900E99A85EF98E0909301018093D6
:1027E000000180916900836080936900E89A80917C
:1027F000AB058C3008F051C061E08CE00E94F7021C
:102800008091AB05282F30E0F901EE0FFF1FE20F9A
:10281000F31FE55DFA4F9081907C9C60908310924D
:10282000AC051092AD052CE0622F0E941D1E829F08
:10283000B001112430E020E0AB01420F531FFA0138
:10284000EE0FFF1FE40FF51FE55DFA4F908196FD37
:1028500016C02F5F3F4F2C30310571F781110FC02B
:102860001092800082E08093810010928500109287
:102870008400B19A80916F00826080936F00E09134
:10288000AB058E2F90E0FC01EE0FFF1FE80FF91F44
:10289000E55DFA4F808180648083E2EFF3E011927E
:1028A00011921192119294E0EA31F907C1F704E113
:1028B00010E0C12CD12C76010E948601BC01990F39
:1028C000880B990B0E94AB1B2AE038E240EA5BE3DD
:1028D0000E94E61B20E030E048EC52E40E94E61B38
:1028E0009B01AC01C701B6010E943F1D6B017C0139
:1028F00064EF71E080E090E00E94580301501109FC
:10290000D9F620E030E040EA51E4C701B6010E9468
:10291000AB1D6093EE037093EF038093F0039093ED
:10292000F1036BEE71E08EEA95E00E948E0A81E081
:102930000E94DA096BEF71E08EEA95E00E948E0A40
:1029400068EE73E080E090E00E9458030E940B0A5A
:102950001092BF031092BE0310925F041092810484
:102960000E949A0486E993E09093BB038093BA0394
:1029700087E993E09093BD038093BC03E0907005DA
:10298000F090710501E023E042E06BE680916F0575
:102990000E940E09E0907005F090710500E022E0C1
:1029A00044E06BE180916F050E940E0980E090E0A9
:1029B000AAE7BCE38093880590938905A0938A05D4
:1029C000B0938B05E0907005F090710522E044E033
:1029D0006CE180916F050E940E0980E090E0A0E01C
:1029E000B9E38093840590938505A0938605B09301
:1029F0008705009170051091710520E046E06BE6B7
:102A000080916F050E946709E0907005F090710554
:102A100008EE13E0910141E065E780916F050E94A7
:102A20006807882339F089818E7790E0959587959E
:102A300080937205809172058433F9F08C30E9F04F
:102A400067E072E08EEA95E00E948E0A81E00E94C3
:102A5000DA0967E172E08EEA95E00E948E0AFFCF04
:102A60009E3040F42850310981E001C0880F2A953A
:102A7000EAF707CE2E503109F7CF64E1C62ED12CEC
:102A8000E0907005F090710508EE13E022E735E064
:102A900046E06BE380916F050E94680780917205A4
:102AA000909173059827892798279093C503809361
:102AB000C4038091740590917505982789279827FC
:102AC0009093C3038093C20380917605909177051C
:102AD0009827892798279093C1038093C00364EFB8
:102AE00071E080E090E00E945803E1E0CE1AD10846
:102AF00039F6209170053091710580916F059DEC3C
:102B00009EA3AE014A5D5F4F6FE10E94C90520910F
:102B100070053091710580916F0592E09DA3AE0123
:102B20004B5D5F4F60E20E94C905009170051091F6
:102B3000710521E046E068E380916F050E94670916
:102B4000009170051091710520E047E06AE68091E0
:102B50006F050E9467092091700530917105809181
:102B60006F0590E49CA3AE014C5D5F4F68E30E944B
:102B7000C9056FE172E08EEA95E00E948E0A68EE68
:102B800073E080E090E00E9458030E940B0A80E00E
:102B90000E94DA096DE272E08EEA95E00E948E0AE8
:102BA00006EC13E0C12CD12C76014EE0442E512CC2
:102BB000612C712C59E3852E912CA12CB12CC701CD
:102BC000B601A30192010E94A41CC9010E940A013E
:102BD00064EF71E080E090E00E9458030E94B80624
:102BE000BC0190E080E0A50194010E940D1DF80158
:102BF000219331938F0168EC70E080E090E00E94B7
:102C00005803F4EBCF0ED11CE11CF11C2CE8C216CA
:102C10002AE0D206E104F10491F60E940B0A80E05A
:102C20000E94DA096DE372E08EEA95E00E948E0A56
:102C300060E177E280E090E00E9458030E940B0A76
:102C400085E00E94A002019751F50E948A036093DB
:102C500025047093260480932704909328041092EF
:102C600024040E948A036938734181059105B8F0F4
:102C700087E00E94A0028C0183E00E94A002012B49
:102C800071F0892B61F060E087E00E94C90288E062
:102C90008093B90560E08EEA95E00E947D060E946F
:102CA0008A03009125041091260420912704309175
:102CB0002804601B710B820B930B693873418105EB
:102CC000910508F481C087E00E94A002D0902404FE
:102CD000D1107AC0892B09F077C0F1E0F093240479
:102CE00080E00E94DA0961E572E08EEA95E00E94D8
:102CF0008E0A81E00E94DA0963E672E08EEA95E0CE
:102D00000E948E0A68EB7BE080E090E00E9458030E
:102D10000E940B0A36EC632E33E0732E812C912C2B
:102D20005401C501B4012EE030E040E050E00E94C3
:102D3000A41CC9010E940A0164EF71E080E090E0E8
:102D40000E9458030E94B8068C0168EC70E080E095
:102D500090E00E945803F301E190F1903F01B80127
:102D600090E080E029E330E040E050E00E940D1D5B
:102D70002E193F0937FF03C03195219531092F31B5
:102D8000310514F0DD24D394F4EB8F0E911CA11CBB
:102D9000B11C2CE882162AE09206A104B10409F6BF
:102DA00080E0DD2009F462C10E94DA0964E772E084
:102DB0008EEA95E00E948E0A68EB7BE080E090E06E
:102DC0000E9458030E940B0A0E948A03009120046B
:102DD000109121042091220430912304601B710B77
:102DE000820B930B69397A438105910508F431C14F
:102DF0000E948A036093200470932104809322042C
:102E00009093230487E00E94A0026C010E94860137
:102E1000BC01990F880B990B0E94AB1B2AE038E28A
:102E200040EA5BE30E94E61B20E030E048EC52E41D
:102E30000E94E61B4B015C0100911A0410911B04D7
:102E4000C801880F991F880F991FFC01EE50FC4F95
:102E50007F01208131814281538160911C047091F6
:102E60001D0480911E0490911F040E943E1D9B0131
:102E7000AC01F70180829182A282B382C501B401C4
:102E80000E943F1D60931C0470931D0480931E04D8
:102E900090931F04C80101966AE070E00E94291E09
:102EA00090931B0480931A040E94E5188090E60317
:102EB0009090E703A090E803B090E9034090EA0304
:102EC0005090EB036090EC037090ED036FE872E0BC
:102ED000C1010E94E60C66EC75E0C1010E94980CED
:102EE00064EA72E00E94820CB301A2010E94150CF8
:102EF0006DEA72E00E94820CB501A4010E94150CDB
:102F000066EB72E00E94820C70E060E00E944C0C64
:102F10006FEB72E00E94820CB6010E944C0CBC0167
:102F2000CE014E960E94CC0CC1010E94F70C68ECB9
:102F300072E0C1010E94E60C4CE651E065E070E0F1
:102F4000C1010E94900AC1010E94F70C64ED72E079
:102F5000CE0142960E94E60C60EC75E0CE014296EE
:102F60000E94980C6AEE72E00E94820C6AEB75E097
:102F70000E94980CBC01C1010E94CC0C4CE651E0AF
:102F80006FE070E0C1010E94900AC1010E94F70C3D
:102F9000CE0142960E94F70C8AA19BA11B8A1A8A35
:102FA0001D8A1C8A1F8A1E8A4AE0B10104960E946B
:102FB0004819F10101900020E9F73197AF0142195A
:102FC0005309B101CE0142960E94AB0C6DEE72E046
:102FD000CE0148960E94E60CBE016E5E7F4FCE0188
:102FE00048960E94980CBC01C1010E94CC0C45E897
:102FF00051E064E070E0C1010E94900AC1010E94AA
:10300000F70CCE0148960E94F70CCE0142960E9422
:10301000F70CCE014E960E942B0A8091E40390910A
:10302000E50301969093E5038093E4036BEF72E070
:10303000C1010E94E60C4CE651E065E070E0C10180
:103040000E94900AC1010E94F70CCE014E960E9488
:10305000F70C20E030E0232B09F4F2CD0E9463024C
:10306000882309F4EDCD0E940000EACD0E94DA0920
:1030700064E872E08EEA95E00E948E0A61E087E0E3
:103080000E94C9020E940B0A1092B90560E08EEA04
:1030900095E00E947D0698CE8EE391E090935105D5
:1030A000809350058091B8039091B9038055954065
:1030B00071F4E0916305F09164059081809165055C
:1030C0008095892380831092B9031092B8038AEB0C
:1030D00095E00E94F70C80EC95E00E94F70C86ECDE
:1030E00095E00E94F70C8CEC95E00E94F70C82EDC5
:1030F00095E00C94F70CEF920F931F93CF93DF930F
:10310000E80134E047FD34E1042E000C550B57FF75
:1031100003C0519541955109E32E022F242FAE0192
:103120000E946219CE01DF91CF911F910F91EF9014
:1031300008958F929F92AF92BF92CF92DF92EF92BB
:10314000FF92CF93DF93EC01688179818A819B8123
:10315000611571058105910521F464E279ED8BE536
:1031600097E02DE133EF41E050E00E94A41C4901BB
:103170005A019B01AC01A7EAB1E40E94C31C6B0198
:103180007C01ACEEB4EFA50194010E94D11CC60EE7
:10319000D71EE81EF91EF7FE06C081E0C81AD10846
:1031A000E10880E8F80AC882D982EA82FB82C70176
:1031B000B6019F77DF91CF91FF90EF90DF90CF9096
:1031C000BF90AF909F908F9008958F929F92AF92F3
:1031D000BF92CF92DF92EF92FF92609104017091C3
:1031E0000501809106019091070161157105810526
:1031F000910521F464E279ED8BE597E02DE133EF61
:1032000041E050E00E94A41C49015A019B01AC011D
:10321000A7EAB1E40E94C31C6B017C01ACEEB4EFE1
:10322000A50194010E94D11CC60ED71EE81EF91EEE
:10323000F7FE06C081E0C81AD108E10880E8F80A64
:10324000C0920401D0920501E0920601F0920701BC
:10325000C701B6019F77FF90EF90DF90CF90BF90AE
:10326000AF909F908F900895609304017093050133
:1032700080930601909307010895BB274A3031F4EB
:10328000992322F4BDE2909581959F4F0C944919A2
:10329000BB27FB015527AA27880F991FAA1FA41730
:1032A00010F0A41B83955051B9F7A05DAA3308F024
:1032B000A95DA193009779F7B111B1931192CB0158
:1032C0000C94991BA9E0B0E0E8E6F9E10C94DC1C51
:1032D0006A01F22EB02E102FFBE3AF2EA01608F4D9
:1032E0001BE31F5F012F27E0AE014F5F5F4F0E947E
:1032F000C11ABC018981982F9970913009F43FC09F
:103300009BE2E1FC04C09E2D9170E0FC3AC05E2D72
:103310005071E82FE87083FF46C084E0911101C02E
:1033200083E0EF2DE81B8F1508F0E0E0D6018E2F2B
:1033300020E2552351F1992329F0D6019C93C6012F
:1033400001966C0196012D5F3F4FE2FE24C08EE492
:10335000D6018C9391E411969C93119712968C93BD
:10336000D9018E2F90E281111BC0E20FF32FF11DC6
:1033700010828EEF9FEF2996ECE00C94F81C9DE2F2
:10338000C6CF90E2C4CF2D9381508111FCCFCE0ED9
:10339000D11CE0E0D0CF8EE6D6018C9391E6DBCF56
:1033A0009D938150E0CF482F447082FF3DC084E060
:1033B000911101C083E08F1510F4EF2DE81BD601A9
:1033C0008E2F20E2552309F1992329F0D6019C93F1
:1033D000C60101966C0196012D5F3F4FE2FE1BC0B6
:1033E00089E4D6018C938EE411968C93119786E430
:1033F00012968C93D9018E2F90E2882309F4B5CFD1
:103400009D938150FACF2D9381508111FCCFCE0E28
:10341000D11CE0E0D9CF89E6D6018C938EE61196D7
:103420008C93119786E6E4CF9B0177FF02C030E0D2
:1034300020E0A1E0B0E0911102C0B0E0A0E0F9010D
:103440003196AE0FBF1F8B2C912CBB2009F461C0AD
:103450005401EFEFAE1ABE0AAA0DBB1DFA161B06E9
:1034600019F014F04F2D4A1B511188C0E3FC59C0CC
:103470007601A42FB0E2A1114FC0C40ED11C992334
:1034800009F45BC040E0D6011196F60190836D010E
:10349000552309F448C0012F060F9A81582F507107
:1034A00084FF03C0913309F4015010160CF047C09B
:1034B000093008F008E0EEE2FE2E5B01A01AB10828
:1034C00085019194819491082F3F320729F4D60108
:1034D000FC92F60131966F016217730794F102179F
:1034E00013077CF5DB01A21BB30BAA24A394B12C18
:1034F000AC0EBD1EAA0DBB1D11968C912150310939
:10350000D601119628153905F4F0F60180836D0176
:10351000DBCFB12CA12CA0CFF701B1937F01A1503B
:10352000AACF9111B0CFD601942F50E302C05D9382
:1035300091509111FCCFC40ED11C40E0ACCF01E002
:10354000BACF80E3DBCF6217730731F4963388F488
:10355000953311F4552369F0F6018083FD01842F22
:1035600090E2811108C0A40FB11D1C9290E080E090
:1035700002CF81E3F1CF91938150F3CF911183CFAB
:103580008ACF283008F027E03327DA01990F311D60
:1035900087FD916000966105710539F432602E5FF8
:1035A0003D9330E32A95E1F708959F3F30F080384E
:1035B0007105610509F03C5F3C5F3D93913008F077
:1035C0008068911DDF93CF931F930F93FF92EF922B
:1035D000192F987F9695E92F96959695E90FFF27D5
:1035E000EE53FF4F99273327EE24FF24A701E7016D
:1035F00005900894079428F4360FE71EF81E491F1B
:10360000511D660F771F881F991F0694A1F705901B
:10361000079428F4E70EF81E491F561FC11D770FA7
:10362000881F991F661F0694A1F70590079428F438
:10363000F80E491F561FC71FD11D880F991F661FFF
:10364000771F0694A1F70590079420F4490F561FA1
:10365000C71FD81F990F661F771F881F0694A9F7E9
:1036600084911095177041F0D695C7955795479559
:10367000F794E7941A95C1F7E8E6F0E0689415909E
:10368000159135916591959105907FE27395E118BB
:10369000F10A430B560BC90BD009C0F7E10CF11E20
:1036A000431F561FC91FD01D7EF4703311F48A9535
:1036B000E6CFE894015030F0080F0AF40027021713
:1036C00008F4202F2395022F7A3328F079E37D9395
:1036D0002A95E9F710C07D932A9589F60694979567
:1036E0006795379517951794E118F10A430B560B18
:1036F000C90BD00998F023957E9173957A3308F021
:1037000070E37C932013B8F77E9170617D9330F065
:10371000839571E37D9370E32A95E1F71124EF908F
:10372000FF900F911F91CF91DF91992787FD909581
:103730000895DC01FC01672F71917723E1F732973F
:1037400004C07C916D9370836291AE17BF07C8F37C
:103750000895E89409C097FB3EF490958095709584
:1037600061957F4F8F4F9F4F9923A9F0F92F96E9CD
:10377000BB279395F695879577956795B795F11142
:10378000F8CFFAF4BB0F11F460FF1BC06F5F7F4FDF
:103790008F4F9F4F16C0882311F096E911C07723F1
:1037A00021F09EE8872F762F05C0662371F096E8FA
:1037B000862F70E060E02AF09A95660F771F881FC9
:1037C000DAF7880F9695879597F908950E94F91B67
:1037D0000C946A1C0E945C1C38F00E94631C20F050
:1037E000952311F00C94531C0C94591C11240C9427
:1037F0009E1C0E947B1C70F3959FC1F3950F50E0B7
:10380000551F629FF001729FBB27F00DB11D639F92
:10381000AA27F00DB11DAA1F649F6627B00DA11D38
:10382000661F829F2227B00DA11D621F739FB00DDE
:10383000A11D621F839FA00D611D221F749F33274E
:10384000A00D611D231F849F600D211D822F762FE7
:103850006A2F11249F5750409AF0F1F088234AF0C4
:10386000EE0FFF1FBB1F661F771F881F9150504030
:10387000A9F79E3F510580F00C94531C0C949E1C9C
:103880005F3FE4F3983ED4F3869577956795B795B7
:10389000F795E7959F5FC1F7FE2B880F911D9695D1
:1038A000879597F9089597F99F6780E870E060E041
:1038B00008959FEF80EC089500240A9416161706C9
:1038C00018060906089500240A9412161306140611
:1038D00005060895092E0394000C11F4882352F074
:1038E000BB0F40F4BF2B11F460FF04C06F5F7F4F2C
:1038F0008F4F9F4F089557FD9058440F551F59F013
:103900005F3F71F04795880F97FB991F61F09F3FCC
:1039100079F087950895121613061406551FF2CFF5
:103920004695F1DF08C0161617061806991FF1CF45
:1039300086957105610508940895E894BB2766276C
:103940007727CB0197F90895052E97FB1EF4009475
:103950000E94BB1C57FD07D00E940D1D07FC03D021
:103960004EF40C94BB1C50954095309521953F4FDB
:103970004F4F5F4F089590958095709561957F4F5B
:103980008F4F9F4F08950E942F1DA59F900DB49FAC
:10399000900DA49F800D911D11240895B7FF0C94E4
:1039A000C31C0E94C31C821B930B08952F923F924D
:1039B0004F925F926F927F928F929F92AF92BF923F
:1039C000CF92DF92EF92FF920F931F93CF93DF93EB
:1039D000CDB7DEB7CA1BDB0B0FB6F894DEBF0FBE48
:1039E000CDBF09942A88398848885F846E847D8495
:1039F0008C849B84AA84B984C884DF80EE80FD8097
:103A00000C811B81AA81B981CE0FD11D0FB6F8940C
:103A1000DEBF0FBECDBFED010895A1E21A2EAA1B95
:103A2000BB1BFD010DC0AA1FBB1FEE1FFF1FA2176E
:103A3000B307E407F50720F0A21BB30BE40BF50B6B
:103A4000661F771F881F991F1A9469F760957095F4
:103A5000809590959B01AC01BD01CF010895A29F77
:103A6000B001B39FC001A39F700D811D1124911D52
:103A7000B29F700D811D1124911D08955058BB27D0
:103A8000AA270E94561D0C946A1C0E945C1C38F0E8
:103A90000E94631C20F039F49F3F19F426F40C9423
:103AA000591C0EF4E095E7FB0C94531CE92F0E947F
:103AB0007B1C58F3BA17620773078407950720F039
:103AC00079F4A6F50C949D1C0EF4E0950B2EBA2FFC
:103AD000A02D0B01B90190010C01CA01A001112414
:103AE000FF27591B99F0593F50F4503E68F11A16C0
:103AF000F040A22F232F342F4427585FF3CF469551
:103B000037952795A795F0405395C9F77EF41F1672
:103B1000BA0B620B730B840BBAF09150A1F0FF0F3C
:103B2000BB1F661F771F881FC2F70EC0BA0F621F28
:103B3000731F841F48F4879577956795B795F79518
:103B40009E3F08F0B0CF9395880F08F09927EE0FAD
:103B50009795879508950E94BF1D0C946A1C0E943A
:103B6000631C58F00E945C1C40F029F45F3F29F070
:103B70000C94531C51110C949E1C0C94591C0E94C3
:103B80007B1C68F39923B1F3552391F3951B550BD7
:103B9000BB27AA2762177307840738F09F5F5F4F20
:103BA000220F331F441FAA1FA9F335D00E2E3AF05F
:103BB000E0E832D091505040E695001CCAF72BD077
:103BC000FE2F29D0660F771F881FBB1F26173707C8
:103BD0004807AB07B0E809F0BB0B802DBF01FF27FA
:103BE00093585F4F3AF09E3F510578F00C94531C68
:103BF0000C949E1C5F3FE4F3983ED4F38695779532
:103C00006795B795F7959F5FC9F7880F911D9695B2
:103C1000879597F90895E1E0660F771F881FBB1F0E
:103C2000621773078407BA0720F0621B730B840BBB
:103C3000BA0BEE1F88F7E0950895991B79E004C050
:103C4000991F961708F0961B881F7A95C9F78095DB
:103C5000089597FB072E16F4009407D077FD09D03E
:103C60000E943D1E07FC05D03EF4909581959F4F24
:103C70000895709561957F4F0895AA1BBB1B51E174
:103C800007C0AA1FBB1FA617B70710F0A61BB70BCC
:103C9000881F991F5A95A9F780959095BC01CD0171
:103CA0000895EE0FFF1F0590F491E02D09940F93F6
:103CB0001F93CF93DF938230910510F482E090E060
:103CC000E091DA05F091DB0530E020E0B0E0A0E023
:103CD000309799F42115310509F44AC0281B390B96
:103CE00024303105D8F58A819B816115710589F1F0
:103CF000FB0193838283FE0111C0408151810281C7
:103D0000138148175907E0F04817590799F410979D
:103D100061F012960C93129713961C933296CF0172
:103D2000DF91CF911F910F9108950093DA051093C1
:103D3000DB05F4CF2115310551F04217530738F058
:103D4000A901DB019A01BD01DF01F801C1CFEF013B
:103D5000F9CF9093DB058093DA05CDCFFE01E20F1A
:103D6000F31F819391932250310939832883D7CF50
:103D70002091D8053091D905232B41F420910A01D7
:103D800030910B013093D9052093D805209108017B
:103D9000309109012115310541F42DB73EB740910D
:103DA0000C0150910D01241B350BE091D805F091C9
:103DB000D905E217F307A0F42E1B3F0B281739078C
:103DC00078F0AC014E5F5F4F2417350748F04E0F77
:103DD0005F1F5093D9054093D805819391939FCF4E
:103DE000F0E0E0E09CCFCF93DF930097E9F0FC0197
:103DF000329713821282A091DA05B091DB05ED01B2
:103E000030E020E01097A1F420813181820F931FD0
:103E10002091D8053091D9052817390709F061C0DC
:103E2000F093D905E093D805DF91CF910895EA0189
:103E3000CE17DF07E8F54A815B819E0141155105E8
:103E4000B1F7E901FB83EA8349915991C40FD51F6A
:103E5000EC17FD0761F4808191810296840F951F14
:103E6000E90199838883828193819B838A83F0E02F
:103E7000E0E012968D919C9113970097B9F52D91E2
:103E80003C911197CD010296820F931F2091D80586
:103E90003091D9052817390739F6309751F5109226
:103EA000DB051092DA05B093D905A093D805BCCFF5
:103EB000D383C28340815181840F951FC817D907CE
:103EC00061F44E5F5F4F88819981480F591F51837C
:103ED00040838A819B81938382832115310509F078
:103EE000B0CFF093DB05E093DA059ECFFD01DC0156
:103EF000C0CF13821282D7CFB0E0A0E0E2E8FFE1AA
:103F00000C94D81C8C01009751F4CB010E94571ED1
:103F10008C01C801CDB7DEB7E0E10C94F41CFC01C4
:103F2000E60FF71F9C0122503109E217F30708F44E
:103F30009DC0D901CD91DC911197C617D70798F094
:103F4000C530D10530F3CE0104978617970708F3E3
:103F5000C61BD70B2297C193D1936D937C93CF014E
:103F60000E94F31ED6CF5B01AC1ABD0A4C018C0E29
:103F70009D1EA091DA05B091DB05512C412CF12C4E
:103F8000E12C109731F58091D8059091D9058815CD
:103F9000990509F05CC04616570608F058C0809194
:103FA000080190910901009741F48DB79EB74091A7
:103FB0000C0150910D01841B950BE817F90708F0CF
:103FC00055C0F093D905E093D805F901718360835A
:103FD000A0CF8D919C91119712966C901297139689
:103FE0007C901397A815B90559F56C0142E0C40EF1
:103FF000D11CCA14DB0420F1AC014A195B09DA01B7
:104000001296159780F06282738251834083D901A2
:104010006D937C93E114F10471F0D7011396FC9336
:10402000EE93129776CF22968C0F9D1FF901918304
:104030008083F301EFCFF093DB05E093DA0569CFDE
:104040004816590608F42C017D01D3019ACFCB0103
:104050000E94571E7C01009749F0AE01B8010E94F2
:104060003920C8010E94F31E870153CF10E000E001
:1040700050CFFB01DC0102C001900D924150504035
:10408000D8F70895FB01DC0101900D920020E1F7C3
:10409000089510E0CFEDD0E004C0FE010E94511E53
:1040A0002196C03ED107C9F7F894FFCF9803980333
:1040B000010000000000DC0580000000400014004A
:1040C000540000000000F601990397014302C80163
:1040D000A601BA01000000004E0621069106DE038B
:1040E0001A060706F80500000000DF039903910691
:1040F000DE033B045104C60300000000160A9903C6
:10410000910672040D0A002E20617420636F6D6D9C
:10411000616E64203D3E20004F4B004661696C009B
:104120003C494E534552545F574946495F535349A2
:10413000443E003C494E534552545F574946495FFF
:10414000504153533E004A584D31465A47534C4F05
:104150004A504E424234006170692E7468696E673D
:10416000737065616B2E636F6D003830004C434493
:1041700020496E697469616C697A65640041540014
:1041800041542B43574D4F44453D310041542B433F
:10419000574A41503D220043757272656E74207318
:1041A000656E73696E6700696E697469616C697ABE
:1041B0006564004D50553630353020636F6E6E6546
:1041C0006374006661696C656421004D505520631D
:1041D0006F6E6E6563746564004D617070696E67C3
:1041E00020726F6F6D2E2E2E00496E697469616C9E
:1041F000697A696E67205049522E2E2E004E6F202C
:104200006D6F74696F6E20666F7220323073004379
:104210006F6D706172696E67206D61702E2E2E0059
:104220004368616E676520646574656374656400E6
:1042300052656C6179204F70656E00474554202FA0
:104240007570646174653F6170695F6B65793D008D
:10425000266669656C64313D00266669656C64326A
:104260003D00266669656C64333D00266669656CB1
:1042700064343D0041542B4349504D55583D310065
:1042800041542B43495053544152543D302C2254F5
:104290004350222C2200222C0041542B43495053DE
:1042A000454E443D302C0041542B434950434C4F24
:0642B00053453D30000003
:107E0000112484B714BE81FFF0D085E080938100F7
:107E100082E08093C00088E18093C10086E0809377
:107E2000C20080E18093C4008EE0C9D0259A86E02C
:107E300020E33CEF91E0309385002093840096BBD3
:107E4000B09BFECF1D9AA8958150A9F7CC24DD24C4
:107E500088248394B5E0AB2EA1E19A2EF3E0BF2EE7
:107E6000A2D0813461F49FD0082FAFD0023811F036
:107E7000013811F484E001C083E08DD089C08234E0
:107E800011F484E103C0853419F485E0A6D080C0E4
:107E9000853579F488D0E82EFF2485D0082F10E0AE
:107EA000102F00270E291F29000F111F8ED06801E7
:107EB0006FC0863521F484E090D080E0DECF843638
:107EC00009F040C070D06FD0082F6DD080E0C81688
:107ED00080E7D80618F4F601B7BEE895C0E0D1E017
:107EE00062D089930C17E1F7F0E0CF16F0E7DF06D8
:107EF00018F0F601B7BEE89568D007B600FCFDCFD4
:107F0000A601A0E0B1E02C9130E011968C91119780
:107F100090E0982F8827822B932B1296FA010C0160
:107F200087BEE89511244E5F5F4FF1E0A038BF0790
:107F300051F7F601A7BEE89507B600FCFDCF97BE46
:107F4000E89526C08437B1F42ED02DD0F82E2BD052
:107F50003CD0F601EF2C8F010F5F1F4F84911BD097
:107F6000EA94F801C1F70894C11CD11CFA94CF0C13
:107F7000D11C0EC0853739F428D08EE10CD085E9AC
:107F80000AD08FE07ACF813511F488E018D01DD067
:107F900080E101D065CF982F8091C00085FFFCCF94
:107FA0009093C60008958091C00087FFFCCF809118
:107FB000C00084FD01C0A8958091C6000895E0E648
:107FC000F0E098E1908380830895EDDF803219F02E
:107FD00088E0F5DFFFCF84E1DECF1F93182FE3DFCA
:107FE0001150E9F7F2DF1F91089580E0E8DFEE27F6
:047FF000FF270994CA
:027FFE00040479
:00000001FF
